:020000040800F2
:100000000028002015130008A5120008AB120008F4
:10001000B1120008B7120008BD120008000000006D
:10002000000000000000000000000000C3120008F3
:10003000CF12000800000000DB120008E7120008E1
:100040005D1300085D1300085D1300085D130008D0
:100050005D1300085D1300085D1300085D130008C0
:100060005D1300085D1300085D1300085D130008B0
:100070005D1300085D1300085D1300085D130008A0
:100080005D1300085D1300085D1300085D13000890
:100090005D1300085D1300085D1300085D13000880
:1000A0005D1300085D1300085D1300085D13000870
:1000B000F51200085D130008000000005D13000841
:1000C0005D13000800000000000000005D13000840
:1000D000000000005D1300085D1300080000000030
:1000E0005D1300085D1300085D13000800000000A8
:1000F0000000000000000000000000000000000000
:0C01000000000000000000005FF808F1A3
:10010C0010B5054C237833B9044B13B10448AFF345
:10011C0000800123237010BD5C0000200000000053
:10012C00A429000808B5034B1BB103490348AFF3DE
:10013C00008008BD0000000060000020A429000819
:10014C0080B483B000AF7860094A7B6852F82330E2
:10015C00012B06D1064A7B68002142F823100123AB
:10016C0000E0002318460C37BD4680BC704700BF2A
:10017C007800002080B483B000AF7860044A7B68BC
:10018C00012142F8231000BF0C37BD4680BC7047DC
:10019C007800002080B582B000AF00237B6069E05E
:1001AC00384A7B6852F8232037497B6841F8232072
:1001BC00364A7B6852F8232032497B6841F8232069
:1001CC00334A7B6832F813301946324801F0ACFBE5
:1001DC00034619462D4A7B6842F82310294A7B684E
:1001EC0052F8232029497B6851F823309A423ED19A
:1001FC00244A7B6852F8232023497B6851F823302A
:10020C009A4234D1204A7B6852F8232022497B68D9
:10021C0051F823309A4216D01B4A7B6852F823209F
:10022C001D497B6841F823201B4A7B6852F8233018
:10023C00002B1CD1194A7B68C82142F8231078681E
:10024C00FFF798FF13E0154A7B6852F823305A1ECB
:10025C0012497B6841F82320104A7B6852F82330FE
:10026C00002B04D10C4A7B68012142F823107B68D7
:10027C0001337B607B68022B92DD00BF00BF083727
:10028C00BD4680BD14000020200000200800002086
:10029C0000000020000C01402C0000203800002041
:1002AC0080B500AF01224FF480710B4801F053FB75
:1002BC0001224FF40071084801F04DFB01224FF46C
:1002CC008061054801F047FB01224FF400610248B0
:1002DC0001F041FB00BF80BD0008014080B582B039
:1002EC0000AF78607B68002B23D100220121C2482B
:1002FC0001F031FB00220221BF4801F02CFB00224F
:10030C000421BD4801F027FB00220821BA4801F066
:10031C0022FB00221021B84801F01DFB00222021F5
:10032C00B54801F018FB01224021B34801F013FB42
:10033C005DE17B68012B23D101220121AE4801F044
:10034C000AFB00220221AC4801F005FB002204212B
:10035C00A94801F000FB01220821A74801F0FBFA93
:10036C0001221021A44801F0F6FA01222021A24812
:10037C0001F0F1FA012240219F4801F0ECFA36E13C
:10038C007B68022B23D1002201219B4801F0E3FA68
:10039C0000220221984801F0DEFA0122042196483D
:1003AC0001F0D9FA00220821934801F0D4FA002276
:1003BC001021914801F0CFFA012220218E4801F042
:1003CC00CAFA002240218C4801F0C5FA0FE17B6883
:1003DC00032B23D100220121874801F0BCFA002213
:1003EC000221854801F0B7FA00220421824801F06D
:1003FC00B2FA00220821804801F0ADFA0122102146
:10040C007D4801F0A8FA012220217B4801F0A3FAD3
:10041C0000224021784801F09EFAE8E07B68042B2A
:10042C0023D101220121744801F095FA0022022106
:10043C00714801F090FA002204216F4801F08BFA08
:10044C00012208216C4801F086FA012210216A4829
:10045C0001F081FA00222021674801F07CFA002289
:10046C004021654801F077FAC1E07B68052B23D168
:10047C0000220121604801F06EFA012202215E483F
:10048C0001F069FA002204215B4801F064FA0022B1
:10049C000821594801F05FFA01221021564801F059
:1004AC005AFA00222021544801F055FA002240212A
:1004BC00514801F050FA9AE07B68062B23D10022B8
:1004CC0001214D4801F047FA012202214A4801F06E
:1004DC0042FA00220421484801F03DFA002208218A
:1004EC00454801F038FA00221021434801F033FA54
:1004FC0000222021404801F02EFA002240213E48E3
:10050C0001F029FA73E07B68072B23D1002201212B
:10051C00394801F020FA00220221374801F01BFA79
:10052C0000220421344801F016FA01220821324835
:10053C0001F011FA012210212F4801F00CFA0122CE
:10054C0020212D4801F007FA012240212A4801F010
:10055C0002FA4CE07B68082B23D1002201212648AB
:10056C0001F0F9F900220221234801F0F4F90022EC
:10057C000421214801F0EFF9002208211E4801F066
:10058C00EAF9002210211C4801F0E5F90022202193
:10059C00194801F0E0F900224021174801F0DBF97D
:1005AC0025E07B68092B22D100220121124801F0A1
:1005BC00D2F900220221104801F0CDF900220421C9
:1005CC000D4801F0C8F9002208210B4801F0C3F9CD
:1005DC0001221021084801F0BEF900222021064812
:1005EC0001F0B9F900224021034801F0B4F900BF31
:1005FC000837BD4680BD00BF000C014080B582B0FD
:10060C0000AF7860FFF74CFE1B4A7B6852F8233032
:10061C001846FFF763FE7B68032B27D801A252F81C
:10062C0023F000BF410600084F0600085D060008D5
:10063C006B06000800224FF48071104801F08BF912
:10064C0015E000224FF400710C4801F084F90EE023
:10065C0000224FF48061094801F07DF907E0002287
:10066C004FF40061054801F076F900E000BF00BFCF
:10067C000837BD4680BD00BF88000020000801403F
:10068C0080B500AF914B1B680E2B53D00E2B00F393
:10069C000A810C2B03D00D2B00F0988003E1012272
:1006AC0008218B4801F057F901221021884801F0EC
:1006BC0052F9884B1B68012B06D1192000F0F0FC75
:1006CC000421834801F05FF90120FFF739FD03464F
:1006DC00012B10D1804B1B6801337F4A13607F4B79
:1006EC001B6801337D4A13607B4B1B68632B02DD57
:1006FC00794B02221A600020FFF722FD0346012BE2
:10070C000CD1012000F0CCFC704B0E221A60744B03
:10071C001B68724A1360734B03221A600220FFF7A6
:10072C000FFD0346012B40F0C0806B4B1B686E4ADB
:10073C001360BAE001220821654801F00CF901228E
:10074C000421634801F007F9624B1B68012B06D1A9
:10075C00192000F0A5FC10215D4801F014F90120CE
:10076C00FFF7EEFC0346012B12D1604B1B680133E3
:10077C005E4A1360594B1B680133584A13605B4B3C
:10078C001A68594B1B689A4202DB584B01221A60BB
:10079C000020FFF7D5FC0346012B0CD1012000F003
:1007AC007FFC4A4B0D221A60514B1B684B4A13605D
:1007BC004C4B04221A600220FFF7C2FC0346012BAB
:1007CC0075D14A4B1B68464A136070E00122042124
:1007DC003F4801F0C0F8012210213D4801F0BBF860
:1007EC003C4B1B68012B06D1192000F059FC082149
:1007FC00374801F0C8F80120FFF7A2FC0346012B93
:10080C0012D13C4B1B6801333A4A1360334B1B68C3
:10081C000133324A1360374B1A68334B1B689A42C8
:10082C0002DB344B01221A600020FFF789FC0346DF
:10083C00012B26D1254B01221A602B4B1A68284B11
:10084C001B68D31A2A4A1360274B1B68234A136070
:10085C00274B1B68234A136000F032FA244B1B68A9
:10086C00642202FB03F3184600F0CAFB642000F07C
:10087C00DBFB012000F000FC1F4B00221A60FFF78D
:10088C000FFD0220FFF75CFC0346012B11D1194B25
:10089C001B68174A1360144B1A68154B1B68D31A44
:1008AC000F4A136005E000BF04E000BF02E000BF88
:1008BC0000E000BF0220FFF743FC0346012B03D1ED
:1008CC00094B1B68054A136000BF80BD84000020E3
:1008DC0000080140D4000020A40000209C0000204F
:1008EC0048000020A000002044000020AC000020A4
:1008FC004C000020A80000209800002080B500AF1C
:10090C00012204210E4801F026F8012208210C488E
:10091C0001F021F801221021094801F01CF80122F4
:10092C002021074801F017F801224021044801F06A
:10093C0012F801228021024801F00DF800BF80BDA1
:10094C000008014080B500AF00220421074801F0E7
:10095C0002F801220821054800F0FDFF01221021B8
:10096C00024800F0F8FF00BF80BD00BF0008014046
:10097C0080B500AF01220421074800F0ECFF0022F3
:10098C000821054800F0E7FF01221021024800F081
:10099C00E2FF00BF80BD00BF0008014080B500AF82
:1009AC0001220421074800F0D6FF01220821054846
:1009BC0000F0D1FF00221021024800F0CCFF00BF54
:1009CC0080BD00BF0008014080B500AF002220218F
:1009DC00074800F0C0FF01224021054800F0BBFF92
:1009EC0001228021024800F0B6FF00BF80BD00BF8D
:1009FC000008014080B500AF01222021074800F01B
:100A0C00AAFF00224021054800F0A5FF0122802109
:100A1C00024800F0A0FF00BF80BD00BF00080140ED
:100A2C0080B500AF01222021074800F094FF01227D
:100A3C004021054800F08FFF00228021024800F081
:100A4C008AFF00BF80BD00BF0008014080B500AF29
:100A5C00904B1B68042B00F2E38001A252F823F0A8
:100A6C00810A0008A30A0008FF0A0008690B0008A5
:100A7C00C30B0008FFF742FF864B01221A60864B1E
:100A8C001B68642202FB03F3184600F0B9FA6420D9
:100A9C0000F0CAFACDE0FFF755FFFFF7ABFF7F4B35
:100AAC001B68012B14D1642000F0BEFA7C4B1B6830
:100ABC00013B7B4A13607B4B1B68013B794A1360FB
:100ACC00784B1B68002B03DC774B1B68754A136053
:100ADC00764B1B68012B40F0A580734B1B6864227E
:100AEC0002FB03F3184600F08BFA6A4B02221A60E1
:100AFC0098E0FFF727FFFFF793FF684B1B68012B6C
:100B0C001CD1642000F090FA654B1B68013B644AD1
:100B1C001360634B1B68002B03DC5F4B1B68604A44
:100B2C001360604B1B68013B5E4A13605D4B1B6896
:100B3C00002B03DC5E4B1B685A4A13605B4B1B6833
:100B4C00012B71D1544B1B68642202FB03F3184632
:100B5C0000F056FA4F4B03221A6065E0FFF708FFCE
:100B6C00FFF732FF4D4B1B68012B14D1642000F0B2
:100B7C005BFA4B4B1B68013B494A1360484B1B68A3
:100B8C00002B03DC484B1B68454A1360454B1B6824
:100B9C00013B444A1360454B1B68012B46D1424B29
:100BAC001B68642202FB03F3184600F029FA394B48
:100BBC0004221A603AE0FFF7F1FEFFF705FF374B0E
:100BCC001B68012B1CD1642000F02EFA344B1B68DF
:100BDC00013B334A1360324B1B68002B03DC344B54
:100BEC001B682F4A13602F4B1B68013B2D4A136067
:100BFC002C4B1B68002B03DC274B1B68294A13600A
:100C0C002A4B1B68012B13D1234B1B68642202FB5C
:100C1C0003F3184600F0F4F91E4B01221A6007E0AA
:100C2C0000BF06E000BF04E000BF02E000BF00E030
:100C3C0000BF0020FFF784FA0346012B28D1154B87
:100C4C001B68012B0BD0134B1B68022B07D0114BCD
:100C5C001B68032B03D00F4B1B68042B18D10D4BB7
:100C6C000C221A60124B1B68124A13600E4B1B6845
:100C7C00114A1360084B1B68104A1360012000F0E6
:100C8C000FFA0B4B1B68064A1360064B02221A60C4
:100C9C0000BF80BD840000204C000020BC00002060
:100CAC009C000020A000002048000020B400002080
:100CBC0044000020A4000020AC000020A80000206C
:100CCC0080B400AF1A4B1B681A4A82FB03129210B5
:100CDC00DB17D31A184A1360154B1968154B83FB95
:100CEC0001239A10CB17D21A13469B0013445B00B6
:100CFC00CA1A114B5A60114B1B680E4A82FB031225
:100D0C009210DB17D31A0C4A93600C4B1968094BE1
:100D1C0083FB01239A10CB17D21A13469B00134462
:100D2C005B00CA1A044BDA6000BFBD4680BC70473A
:100D3C009C0000206766666688000020A0000020EA
:100D4C0080B500AF00F006FB00F05EF800F0E4F8B0
:100D5C0000F096F8204801F05BFA012000F078F9D9
:100D6C00012000F089F91D4B1B681D4A13601D4BB7
:100D7C001B681D4A1360194B1B681C4A1360194BE6
:100D8C001B681B4A13601B4B1B681B4A13601B4BD5
:100D9C001B68012B04D10A2000F05AF9FFF790FFD1
:100DAC00174B1B68012B11D10A2000F065F9154B6C
:100DBC001B685A1C13490A601846FFF71FFC114B9D
:100DCC001B68032B02DD0F4B00221A60FFF73EFE5F
:100DDC00FFF756FCDBE700BFE800002044000020D2
:100DEC009C0000204C000020A0000020A40000204B
:100DFC00A800002048000020AC000020C400002007
:100E0C00CC0000209800002080B590B000AF07F116
:100E1C00180328220021184601F0B6FD3B1D0022C4
:100E2C001A605A609A60DA601A610223BB6101236E
:100E3C00BB621023FB6200237B6307F11803184687
:100E4C0000F0BAFD0346002B01D000F0D3F80F23BD
:100E5C007B600023BB600023FB6000233B6100230D
:100E6C007B613B1D0021184601F026F80346002B40
:100E7C0001D000F0BFF800BF4037BD4680BD000078
:100E8C0080B586B000AF07F1080300221A605A60E3
:100E9C009A60DA603B4600221A605A601D4B4FF094
:100EAC0080421A601B4B41F63F725A60194B00226C
:100EBC009A60184B0922DA60164B00221A61154B06
:100ECC0000229A61134801F053F90346002B01D01C
:100EDC0000F090F84FF48053BB6007F108031946FB
:100EEC000C4801F0E9FA0346002B01D000F082F81F
:100EFC0000233B6000237B603B461946054801F00C
:100F0C00B5FC0346002B01D000F074F800BF183775
:100F1C00BD4680BDE800002080B586B000AF07F16B
:100F2C00080300221A605A609A60DA60284B9B69A9
:100F3C00274A43F004039361254B9B6903F0040398
:100F4C007B607B68224B9B69214A43F008039361C9
:100F5C001F4B9B6903F008033B603B68002240F683
:100F6C00FC711C4800F0F7FC00227F211A4800F0AD
:100F7C00F2FC40F6FC73BB600123FB6000233B6179
:100F8C0002237B6107F108031946124800F052FB5B
:100F9C007F23BB600123FB6000233B6102237B6149
:100FAC0007F1080319460C4800F044FB4FF4E043EA
:100FBC00BB600023FB6001233B6107F1080319466A
:100FCC00054800F037FB00BF1837BD4680BD00BF99
:100FDC000010024000080140000C014080B582B0B6
:100FEC0000AF786000F070F8FFF7D4F800BF083756
:100FFC00BD4680BD80B400AF72B600BFFEE70000F6
:10100C0080B483B000AF7860054A7B681360054BF1
:10101C0000221A6000BF0C37BD4680BC704700BF71
:10102C00B0000020B400002080B483B000AF786022
:10103C00054A7B681360054B00221A6000BF0C3711
:10104C00BD4680BC704700BFB8000020BC0000202B
:10105C0080B483B000AF7860054A7B681360054BA1
:10106C0000221A6000BF0C37BD4680BC704700BF21
:10107C00C0000020C400002080B483B000AF7860B2
:10108C00054A7B681360054B00221A6000BF0C37C1
:10109C00BD4680BC704700BFC8000020CC000020BB
:1010AC0080B483B000AF7860054A7B681360054B51
:1010BC0000221A6000BF0C37BD4680BC704700BFD1
:1010CC00D0000020D400002080B400AF394B1B6846
:1010DC00002B0BDD374B1B68013B364A1360354B3D
:1010EC001B68002B02DC344B01221A60334B1B684B
:1010FC00002B0BDD314B1B68013B304A13602F4B2F
:10110C001B68002B02DC2E4B01221A602D4B1B6836
:10111C00002B0BDD2B4B1B68013B2A4A1360294B20
:10112C001B68002B02DC284B01221A60274B1B6822
:10113C00002B0BDD254B1B68013B244A1360234B12
:10114C001B68002B02DC224B01221A60214B1B680E
:10115C00002B0BDD1F4B1B68013B1E4A13601D4B04
:10116C001B68002B02DC1C4B01221A601B4B1B68FA
:10117C00002B0BDD194B1B68013B184A1360174BF6
:10118C001B68002B02DC164B01221A60154B1B68E6
:10119C00002B0BDD134B1B68013B124A1360114BE8
:1011AC001B68002B02DC104B01221A6000BFBD46ED
:1011BC0080BC7047B0000020B4000020B8000020B4
:1011CC00BC000020C0000020C4000020C80000208B
:1011DC00CC000020D0000020D4000020D80000203B
:1011EC00DC000020E0000020E400002080B485B08A
:1011FC0000AF154B9B69144A43F001039361124BEA
:10120C009B6903F00103BB60BB680F4BDB690E4AA3
:10121C0043F08053D3610C4BDB6903F080537B604C
:10122C007B680A4B5B68FB60FB6823F0E063FB6048
:10123C00FB6843F08063FB60044AFB68536000BFAB
:10124C001437BD4680BC70470010024000000140BE
:10125C0080B584B000AF78607B681B68B3F1804FB9
:10126C0013D10C4BDB690B4A43F00103D361094BDF
:10127C00DB6903F00103FB60FB68002200211C20EA
:10128C0000F0A1F91C2000F0BAF900BF1037BD46E0
:10129C0080BD00BF0010024080B400AFFEE780B4F8
:1012AC0000AFFEE780B400AFFEE780B400AFFEE70E
:1012BC0080B400AFFEE780B400AF00BFBD4680BC79
:1012CC00704780B400AF00BFBD4680BC704780B48F
:1012DC0000AF00BFBD4680BC704780B500AF00F0CA
:1012EC007FF800BF80BD000080B500AF024800F061
:1012FC00DBFF00BF80BD00BFE800002080B400AF62
:10130C0000BFBD4680BC7047FFF7F8FF0B480C4987
:10131C000C4A002302E0D458C4500433C4188C4245
:10132C00F9D3094A094C002301E013600432A242AC
:10133C00FBD301F005FBFFF703FD70470000002015
:10134C005C000020E82900085C000020340100202B
:10135C00FEE7000080B500AF084B1B68074A43F05E
:10136C0010031360032000F023F90F2000F008F89D
:10137C00FFF73CFF0023184680BD00BF0020024051
:10138C0080B582B000AF7860124B1A68124B1B7894
:10139C0019464FF47A73B3FBF1F3B2FBF3F318462F
:1013AC0000F03BF90346002B01D001230EE07B68D3
:1013BC000F2B0AD8002279684FF0FF3000F003F9A8
:1013CC00064A7B681360002300E0012318460837A7
:1013DC00BD4680BD50000020580000205400002065
:1013EC0080B400AF054B1B781A46054B1B681344A1
:1013FC00034A136000BFBD4680BC704758000020F4
:10140C003001002080B400AF024B1B681846BD466B
:10141C0080BC70473001002080B485B000AF78608C
:10142C007B6803F00703FB600C4BDB68BB60BA689E
:10143C004FF6FF031340BB60FB681A02BB681343F3
:10144C0043F0BF6343F40033BB60044ABB68D36012
:10145C0000BF1437BD4680BC704700BF00ED00E0F4
:10146C0080B400AF044BDB681B0A03F0070318467B
:10147C00BD4680BC704700BF00ED00E080B483B077
:10148C0000AF0346FB7197F90730002B0BDBFB79A0
:10149C0003F01F02064997F907305B09012000FA97
:1014AC0002F241F8232000BF0C37BD4680BC7047C8
:1014BC0000E100E080B483B000AF03463960FB71FB
:1014CC0097F90730002B0ADB3B68DAB20C4997F925
:1014DC0007301201D2B20B4483F800230AE03B68B8
:1014EC00DAB20849FB7903F00F03043B1201D2B2C4
:1014FC000B441A7600BF0C37BD4680BC704700BF4A
:10150C0000E100E000ED00E080B489B000AFF860CD
:10151C00B9607A60FB6803F00703FB61FB69C3F1F8
:10152C000703042B28BF0423BB61FB690433062B80
:10153C0002D9FB69033B00E000237B614FF0FF32D3
:10154C00BB6902FA03F3DA43BB681A407B699A4021
:10155C004FF0FF317B6901FA03F3D9437B680B40F1
:10156C00134318462437BD4680BC704780B582B003
:10157C0000AF78607B68013BB3F1807F01D301231E
:10158C000FE00A4A7B68013B53600F214FF0FF309C
:10159C00FFF790FF054B00229A60044B07221A605C
:1015AC00002318460837BD4680BD00BF10E000E0A0
:1015BC0080B582B000AF78607868FFF72DFF00BF70
:1015CC000837BD4680BD80B586B000AF0346B96014
:1015DC007A60FB7300237B61FFF742FF78617A68C6
:1015EC00B9687869FFF790FF024697F90F301146FA
:1015FC001846FFF75FFF00BF1837BD4680BD80B5AA
:10160C0082B000AF0346FB7197F907301846FFF71D
:10161C0035FF00BF0837BD4680BD80B582B000AF36
:10162C0078607868FFF7A2FF034618460837BD4676
:10163C0080BD000080B48BB000AF786039600023AF
:10164C007B6200233B6248E101227B6A02FA03F3CE
:10165C00FB613B681B68FA691340BB61BA69FB69A3
:10166C009A4240F037813B685B68A34A93425ED054
:10167C00A14A934275D8A14A934258D09F4A9342AB
:10168C006FD89F4A934252D09D4A934269D89D4A43
:10169C0093424CD09B4A934263D89B4A934246D088
:1016AC00994A93425DD8122B2AD8122B59D801A2F1
:1016BC0052F823F03B1700081517000827170008ED
:1016CC00691700086F1700086F1700086F170008DC
:1016DC006F1700086F1700086F1700086F170008C6
:1016EC006F1700086F1700086F1700086F170008B6
:1016FC006F1700086F1700081D1700083117000836
:10170C00824A934213D02CE03B68DB683B6229E0B1
:10171C003B68DB6804333B6224E03B68DB680833DE
:10172C003B621FE03B68DB680C333B621AE03B68B2
:10173C009B68002B02D104233B6213E03B689B683F
:10174C00012B05D108233B627B68FA691A6109E019
:10175C0008233B627B68FA695A6103E000233B6211
:10176C0000E000BFBB69FF2B01D87B6801E07B6800
:10177C0004337B61BB69FF2B02D87B6A9B0002E0C0
:10178C007B6A083B9B003B617B691A680F213B69B4
:10179C0001FA03F3DB431A40396A3B6901FA03F39C
:1017AC001A437B691A603B685B6803F08053002B1B
:1017BC0000F09080564B9B69554A43F001039361AE
:1017CC00534B9B6903F00103BB60BB68514A7B6AB6
:1017DC009B08023352F82330FB607B6A03F003034F
:1017EC009B000F2202FA03F3DB43FA681340FB6001
:1017FC007B68494A93420DD07B68484A934207D094
:10180C007B68474A934201D1022304E0032302E0A0
:10181C00012300E000237A6A02F003029200934055
:10182C00FA681343FB603B497B6A9B080233FA68F6
:10183C0041F823203B685B6803F48013002B06D02F
:10184C00384B9A683749BB6913438B6006E0354BBC
:10185C009A68BB69DB43334913408B603B685B6818
:10186C0003F40013002B06D02E4BDA682D49BB690C
:10187C001343CB6006E02B4BDA68BB69DB43294989
:10188C001340CB603B685B6803F40033002B06D03D
:10189C00244B5A682349BB6913434B6006E0214B28
:1018AC005A68BB69DB431F4913404B603B685B685C
:1018BC0003F48033002B06D01A4B1A681949BB6904
:1018CC0013430B6006E0174B1A68BB69DB431549E1
:1018DC0013400B607B6A01337B623B681A687B6A3E
:1018EC0022FA03F3002B7FF4AFAE00BF00BF2C37FE
:1018FC00BD4680BC704700BF0000321000003110A4
:10190C000000221000002110000012100000111025
:10191C00001002400000014000080140000C014092
:10192C00001001400004014080B485B000AF786025
:10193C000B467B807B689A687B881340002B02D017
:10194C000123FB7301E00023FB73FB7B1846143768
:10195C00BD4680BC704780B483B000AF78600B4646
:10196C007B8013467B707B78002B03D07A887B6856
:10197C001A6103E07B881A047B681A6100BF0C377C
:10198C00BD4680BC704780B485B000AF78600B4614
:10199C007B807B68DB68FB607A88FB6813401A04E9
:1019AC00FB68D9437B880B401A437B681A6100BFE4
:1019BC001437BD4680BC704780B586B000AF7860E8
:1019CC007B68002B01D101236CE27B681B6803F060
:1019DC000103002B00F08780924B5B6803F00C0333
:1019EC00042B0CD08F4B5B6803F00C03082B12D12B
:1019FC008C4B5B6803F48033B3F5803F0BD1894B80
:101A0C001B6803F40033002B6CD07B685B68002BE5
:101A1C0068D1012346E27B685B68B3F5803F06D151
:101A2C00804B1B687F4A43F4803313602EE07B6845
:101A3C005B68002B0CD17B4B1B687A4A23F48033F8
:101A4C001360784B1B68774A23F4802313601DE0E6
:101A5C007B685B68B3F5A02F0CD1724B1B68714A85
:101A6C0043F4802313606F4B1B686E4A43F480333E
:101A7C0013600BE06B4B1B686A4A23F480331360D2
:101A8C00684B1B68674A23F4802313607B685B6890
:101A9C00002B13D0FFF7B6FC386108E0FFF7B2FC5F
:101AAC0002463B69D31A642B01D90323FAE15D4B3F
:101ABC001B6803F40033002BF0D014E0FFF7A2FCFA
:101ACC00386108E0FFF79EFC02463B69D31A642B91
:101ADC0001D90323E6E1534B1B6803F40033002BBD
:101AEC00F0D100E000BF7B681B6803F00203002B01
:101AFC0063D04C4B5B6803F00C03002B0BD0494BB1
:101B0C005B6803F00C03082B1CD1464B5B6803F499
:101B1C008033002B16D1434B1B6803F00203002BC0
:101B2C0005D07B681B69012B01D00123BAE13D4B29
:101B3C001B6823F0F8027B685B69DB0039491343AF
:101B4C000B603AE07B681B69002B20D0364B0122DE
:101B5C001A60FFF757FC386108E0FFF753FC0246A8
:101B6C003B69D31A022B01D903239BE12D4B1B6834
:101B7C0003F00203002BF0D02A4B1B6823F0F80271
:101B8C007B685B69DB00274913430B6015E0264B30
:101B9C0000221A60FFF736FC386108E0FFF732FCD0
:101BAC0002463B69D31A022B01D903237AE11D4B60
:101BBC001B6803F00203002BF0D17B681B6803F059
:101BCC000803002B3AD07B689B69002B19D0174B6C
:101BDC0001221A60FFF716FC386108E0FFF712FCCF
:101BEC0002463B69D31A022B01D903235AE10D4B50
:101BFC005B6A03F00203002BF0D0012000F09AFA8C
:101C0C001CE00A4B00221A60FFF7FCFB38610FE066
:101C1C00FFF7F8FB02463B69D31A022B08D90323C2
:101C2C0040E100BF001002400000424280044242EA
:101C3C009E4B5B6A03F00203002BE9D17B681B68A7
:101C4C0003F00403002B00F0A6800023FB75974BD8
:101C5C00DB6903F08053002B0DD1944BDB69934A65
:101C6C0043F08053D361914BDB6903F08053BB602D
:101C7C00BB680123FB758E4B1B6803F48073002B30
:101C8C0018D18B4B1B688A4A43F480731360FFF79F
:101C9C00B9FB386108E0FFF7B5FB02463B69D31A84
:101CAC00642B01D90323FDE0814B1B6803F4807383
:101CBC00002BF0D07B68DB68012B06D17B4B1B6AB9
:101CCC007A4A43F0010313622DE07B68DB68002B3A
:101CDC000CD1764B1B6A754A23F001031362734BCC
:101CEC001B6A724A23F0040313621CE07B68DB68F6
:101CFC00052B0CD16D4B1B6A6C4A43F00403136229
:101D0C006A4B1B6A694A43F0010313620BE0674B91
:101D1C001B6A664A23F001031362644B1B6A634A15
:101D2C0023F0040313627B68DB68002B15D0FFF7EC
:101D3C0069FB38610AE0FFF765FB02463B69D31A81
:101D4C0041F28832934201D90323ABE0574B1B6A13
:101D5C0003F00203002BEED014E0FFF753FB3861C5
:101D6C000AE0FFF74FFB02463B69D31A41F2883277
:101D7C00934201D9032395E04C4B1B6A03F00203F9
:101D8C00002BEED1FB7D012B05D1484BDB69474A7B
:101D9C0023F08053D3617B68DB69002B00F08180DA
:101DAC00424B5B6803F00C03082B61D07B68DB694A
:101DBC00022B46D13F4B00221A60FFF723FB386100
:101DCC0008E0FFF71FFB02463B69D31A022B01D92F
:101DDC00032367E0354B1B6803F00073002BF0D135
:101DEC007B681B6AB3F5803F08D1304B5B6823F4EA
:101DFC0000327B689B682D4913434B602B4B5B680F
:101E0C0023F474127B68196A7B685B6A0B4327495D
:101E1C0013434B60274B01221A60FFF7F3FA38612A
:101E2C0008E0FFF7EFFA02463B69D31A022B01D9FF
:101E3C00032337E01D4B1B6803F00073002BF0D01D
:101E4C002FE01C4B00221A60FFF7DCFA386108E027
:101E5C00FFF7D8FA02463B69D31A022B01D90323A8
:101E6C0020E0124B1B6803F00073002BF0D118E03C
:101E7C007B68DB69012B01D1012313E00B4B5B6801
:101E8C00FB60FB6803F480327B681B6A9A4206D1C4
:101E9C00FB6803F470127B685B6A9A4201D00123E1
:101EAC0000E0002318461837BD4680BD00100240E4
:101EBC00007000406000424280B584B000AF786092
:101ECC0039607B68002B01D10123D0E06A4B1B6881
:101EDC0003F007033A689A4210D9674B1B6823F04A
:101EEC00070265493B6813430B60634B1B6803F0A7
:101EFC0007033A689A4201D00123B8E07B681B685B
:101F0C0003F00203002B20D07B681B6803F0040352
:101F1C00002B05D0594B5B68584A43F4E06353607F
:101F2C007B681B6803F00803002B05D0534B5B68E0
:101F3C00524A43F460535360504B5B6823F0F002F9
:101F4C007B689B684D4913434B607B681B6803F0AF
:101F5C000103002B40D07B685B68012B07D1474BFA
:101F6C001B6803F40033002B15D101237FE07B6841
:101F7C005B68022B07D1414B1B6803F00073002BED
:101F8C0009D1012373E03D4B1B6803F00203002BC6
:101F9C0001D101236BE0394B5B6823F003027B68B2
:101FAC005B68364913434B60FFF72CFAF8600AE084
:101FBC00FFF728FA0246FB68D31A41F288329342A3
:101FCC0001D9032353E02D4B5B6803F00C027B68B3
:101FDC005B689B009A42EBD1274B1B6803F007030D
:101FEC003A689A4210D2244B1B6823F0070222490C
:101FFC003B6813430B60204B1B6803F007033A68E4
:10200C009A4201D0012332E07B681B6803F0040381
:10201C00002B08D0194B5B6823F4E0627B68DB680B
:10202C00164913434B607B681B6803F00803002BB5
:10203C0009D0124B5B6823F460527B681B69DB0090
:10204C000E4913434B6000F021F802460B4B5B68C2
:10205C001B0903F00F030A49CB5C22FA03F3094A6C
:10206C001360094B1B681846FFF78AF900231846C2
:10207C001037BD4680BD00BF00200240001002405A
:10208C00BC290008500000205400002080B487B008
:10209C0000AF0023FB600023BB6000237B610023A7
:1020AC007B6000233B611E4B5B68FB60FB6803F0AD
:1020BC000C03042B02D0082B03D027E0194B3B61F7
:1020CC0027E0FB689B0C03F00F03174AD35C7B6083
:1020DC00FB6803F48033002B10D0114B5B685B0C56
:1020EC0003F00103114AD35CBB607B680D4A02FB11
:1020FC0003F2BB68B2FBF3F37B6104E07B680C4A30
:10210C0002FB03F37B617B693B6102E0054B3B61A6
:10211C0000BF3B6918461C37BD4680BC704700BFEA
:10212C000010024000127A00CC290008DC290008BB
:10213C0000093D0080B485B000AF78600A4B1B6885
:10214C000A4AA2FB03235B0A7A6802FB03F3FB60D7
:10215C0000BFFB685A1EFA60002BF9D100BF00BF0C
:10216C001437BD4680BC704750000020D34D621020
:10217C0080B582B000AF78607B68002B01D1012361
:10218C0041E07B6893F83D30DBB2002B06D17B68D5
:10219C00002283F83C207868FFF75AF87B6802220B
:1021AC0083F83D207B681A687B6804331946104617
:1021BC0000F06EFA7B68012283F846207B680122CE
:1021CC0083F83E207B68012283F83F207B68012244
:1021DC0083F840207B68012283F841207B68012230
:1021EC0083F842207B68012283F843207B6801221C
:1021FC0083F844207B68012283F845207B68012208
:10220C0083F83D20002318460837BD4680BD0000EA
:10221C0080B485B000AF78607B6893F83D30DBB25A
:10222C00012B01D0012335E07B68022283F83D208D
:10223C007B681B68DA687B681B6842F00102DA6015
:10224C007B681B68164A934209D07B681B68B3F104
:10225C00804F04D07B681B68124A934211D17B6873
:10226C001B689B6803F00703FB60FB68062B10D010
:10227C007B681B681A687B681B6842F001021A6055
:10228C0007E07B681B681A687B681B6842F00102D8
:10229C001A60002318461437BD4680BC704700BF37
:1022AC00002C01400004004080B582B000AF786083
:1022BC007B681B681B6903F00203022B22D17B682D
:1022CC001B68DB6803F00203022B1BD17B681B68C5
:1022DC006FF002021A617B6801221A777B681B6817
:1022EC009B6903F00303002B03D0786800F0B4F96A
:1022FC0005E0786800F0A7F9786800F0B6F97B681B
:10230C0000221A777B681B681B6903F00403042BFB
:10231C0022D17B681B68DB6803F00403042B1BD100
:10232C007B681B686FF004021A617B6802221A77C3
:10233C007B681B689B6903F44073002B03D078689F
:10234C0000F08AF905E0786800F07DF9786800F013
:10235C008CF97B6800221A777B681B681B6903F079
:10236C000803082B22D17B681B68DB6803F0080389
:10237C00082B1BD17B681B686FF008021A617B6805
:10238C0004221A777B681B68DB6903F00303002BBC
:10239C0003D0786800F060F905E0786800F053F934
:1023AC00786800F062F97B6800221A777B681B68FA
:1023BC001B6903F01003102B22D17B681B68DB68B0
:1023CC0003F01003102B1BD17B681B686FF01002FD
:1023DC001A617B6808221A777B681B68DB6903F437
:1023EC004073002B03D0786800F036F905E078686C
:1023FC0000F029F9786800F038F97B6800221A7728
:10240C007B681B681B6903F00103012B0ED17B68F1
:10241C001B68DB6803F00103012B07D17B681B6889
:10242C006FF001021A617868FEF7D8FD7B681B68B3
:10243C001B6903F08003802B0ED17B681B68DB6863
:10244C0003F08003802B07D17B681B686FF0800240
:10245C001A61786800F06BFA7B681B681B6903F0E3
:10246C004003402B0ED17B681B68DB6803F04003F4
:10247C00402B07D17B681B686FF040021A617868AB
:10248C0000F0FCF87B681B681B6903F02003202B11
:10249C000ED17B681B68DB6803F02003202B07D16F
:1024AC007B681B686FF020021A61786800F036FABE
:1024BC0000BF0837BD4680BD80B584B000AF7860E2
:1024CC0039600023FB737B6893F83C30012B01D1FE
:1024DC000223B4E07B68012283F83C207B68022253
:1024EC0083F83D207B681B689B68BB60BB6823F04E
:1024FC007703BB60BB6823F47F43BB607B681B68BE
:10250C00BA689A603B681B68B3F5005F3ED0B3F5C0
:10251C00005F00F28780B3F5805F00F08680B3F532
:10252C00805F7FD8702B1AD0702B7BD8602B50D04B
:10253C00602B77D8502B3CD0502B73D8402B58D0D5
:10254C00402B6FD8302B64D0302B6BD8202B60D025
:10255C00202B67D8002B5CD0102B5AD062E07B6804
:10256C0018683B6899683B685A683B68DB6800F000
:10257C005EF97B681B689B68BB60BB6843F07703A4
:10258C00BB607B681B68BA689A604FE07B68186810
:10259C003B6899683B685A683B68DB6800F047F910
:1025AC007B681B689A687B681B6842F480429A605F
:1025BC003CE07B6818683B6859683B68DB681A46E6
:1025CC0000F0BEF87B681B685021184600F015F926
:1025DC002CE07B6818683B6859683B68DB681A46D6
:1025EC0000F0DCF87B681B686021184600F005F9E8
:1025FC001CE07B6818683B6859683B68DB681A46C6
:10260C0000F09EF87B681B684021184600F0F5F836
:10261C000CE07B681A683B681B681946104600F092
:10262C00ECF803E00123FB7300E000BF7B680122A0
:10263C0083F83D207B68002283F83C20FB7B184606
:10264C001037BD4680BD80B483B000AF786000BF4A
:10265C000C37BD4680BC704780B483B000AF786047
:10266C0000BF0C37BD4680BC704780B483B000AF50
:10267C00786000BF0C37BD4680BC704780B483B017
:10268C0000AF786000BF0C37BD4680BC70470000BF
:10269C0080B485B000AF786039607B681B68FB60E4
:1026AC007B68254A934207D07B68B3F1804F03D0F7
:1026BC007B68224A934208D1FB6823F07003FB60CD
:1026CC003B685B68FA681343FB607B681A4A934269
:1026DC0007D07B68B3F1804F03D07B68174A9342D5
:1026EC0008D1FB6823F44073FB603B68DB68FA6835
:1026FC001343FB60FB6823F080023B685B69134368
:10270C00FB607B68FA681A603B689A687B68DA62DF
:10271C003B681A687B689A627B68074A934203D1CC
:10272C003B681A697B681A637B6801225A6100BF97
:10273C001437BD4680BC7047002C0140000400409B
:10274C0080B487B000AFF860B9607A60FB681B6A30
:10275C007B61FB681B6A23F00102FB681A62FB6851
:10276C009B693B613B6923F0F0033B617B681B0178
:10277C003A6913433B617B6923F00A037B617A69F5
:10278C00BB6813437B61FB683A699A61FB687A69A1
:10279C001A6200BF1C37BD4680BC704780B487B03E
:1027AC0000AFF860B9607A60FB681B6A7B61FB68FC
:1027BC001B6A23F01002FB681A62FB689B693B6181
:1027CC003B6923F470433B617B681B033A691343F9
:1027DC003B617B6923F0A0037B61BB681B017A69B9
:1027EC0013437B61FB683A699A61FB687A691A62E8
:1027FC0000BF1C37BD4680BC704780B485B000AFAD
:10280C00786039607B689B68FB60FB6823F0700321
:10281C00FB603A68FB68134343F00703FB607B687B
:10282C00FA689A6000BF1437BD4680BC704780B40C
:10283C0087B000AFF860B9607A603B60FB689B685A
:10284C007B617B6923F47F437B613B681A027B6865
:10285C001A43BB6813437A6913437B61FB687A693B
:10286C009A6000BF1C37BD4680BC704780B485B0F1
:10287C0000AF786039607B6893F83C30012B01D154
:10288C00022341E07B68012283F83C207B68022212
:10289C0083F83D207B681B685B68FB607B681B686A
:1028AC009B68BB60FB6823F07003FB603B681B6894
:1028BC00FA681343FB607B681B68FA685A607B6894
:1028CC001B68144A934209D07B681B68B3F1804F94
:1028DC0004D07B681B68104A93420CD1BB6823F070
:1028EC008003BB603B685B68BA681343BB607B6862
:1028FC001B68BA689A607B68012283F83D207B686C
:10290C00002283F83C20002318461437BD4680BCB7
:10291C00704700BF002C01400004004080B483B01D
:10292C0000AF786000BF0C37BD4680BC704780B4E8
:10293C0083B000AF786000BF0C37BD4680BC7047D9
:10294C0070B500260C4D0D4C641BA410A64209D189
:10295C0000F022F800260A4D0A4C641BA410A64273
:10296C0005D170BD55F8043B98470136EEE755F894
:10297C00043B98470136F2E7E0290008E0290008FB
:10298C00E0290008E429000803460244934200D1E0
:10299C00704703F8011BF9E7F8B500BFF8BC08BC99
:1029AC009E467047F8B500BFF8BC08BC9E46704701
:1029BC0000000000000000000102030406070809E3
:1029CC0002030405060708090A0B0C0D0E0F101064
:0429DC0001020000F4
:0429E00031010008B9
:0429E4000D010008D9
:1029E800001000200040000001000000010000006D
:1029F80001000000010000000100000001000000CB
:102A080001000000010000000100000001000000BA
:102A18000100000001000000C8000000C80000001C
:102A2800C8000000050000000200000003000000CC
:0C2A38000024F400100000000100000069
:0400000508001315C7
:00000001FF
